:020000040800F2
:1000000000A00020B9020008BF020008C3020008D7
:1000100035030008390300088103000800000000D0
:10002000000000000000000000000000C9030008FC
:10003000CD03000800000000D1030008350C0008C3
:10004000E5030008E5030008E5030008E5030008F0
:10005000E5030008E5030008E5030008E5030008E0
:10006000E5030008E5030008E5030008E5030008D0
:10007000E5030008E5030008E5030008E5030008C0
:10008000E5030008E5030008E5030008E5030008B0
:10009000E5030008E5030008E5030008E5030008A0
:1000A000E5030008E5030008E5030008E503000890
:1000B000E5030008E5030008E5030008E503000880
:1000C000E5030008E5030008E5030008E503000870
:1000D000E5030008E5030008E5030008E503000860
:1000E000E5030008E5030008E5030008E503000850
:1000F000E5030008E5030008E5030008E503000840
:10010000000000000000000000000000E5030008FF
:10011000E5030008E5030008E5030008E50300081F
:10012000E5030008E5030008E5030008E50300080F
:10013000E5030008E50300080000000000000000DF
:10014000E5030008E5030008E503000800000000DF
:10015000000000000000000000000000000000009F
:100160000000000000000000E5030008E5030008AF
:10017000E50300080000000000000000000000008F
:1001800000000000E503000800B583B000F050FC5B
:10019000384B394A1360394A1360394906E052F83E
:1001A000041B43F8041B9842F9D86146354B994229
:1001B00005D20A684B6801F10C0C8868F3E72E4BF6
:1001C0001A68314B9A4200D0FEE72C4B1A682F4B2D
:1001D0009A42F9D1274B2E4A13602E4A13602E4AB9
:1001E00000E002462D4B9A4209D2104650F8083BD7
:1001F00051689942F5D9002243F8042BF9E7244BC2
:100200001B6813B9234B1B6803B1FEE700F07AFCAF
:10021000694601A800F062FA214C224BE41AA410AE
:10022000002504E01F4B53F8253098470135AC42B8
:10023000F8DC1D4C1D4BE41AA410002504E01B4BF8
:1002400053F8253098470135AC42F8DC0099019805
:1002500000F06AFC0546164C164BE41AA41004E0A4
:10026000013C144B53F824309847002CF8DC284606
:1002700000F0D0F9BABADECA0000002074000020F5
:10028000E8030008000400087856341232547698C7
:10029000780000203C020020000400081004000840
:1002A00010040008100400081004000810040008DE
:1002B000100400081004000808B5FFF765FF00BE31
:1002C000FEE71EF0040F0CBFEFF30880EFF3098088
:1002D0007146414A10472DE9F04182B004460D466F
:1002E000124B5F6BD3F838809E6A1B6B13F0020FC2
:1002F00003D00E4BDB6A002B0BDB0D4800F084FAB9
:10030000009543463A463146204600F097FA00BE33
:10031000FEE74BF6AB6100F00BFB0028EDD0034B82
:100320004FF00042DA6202B0BDE8F08100ED00E07B
:100330006417000800BEFEE71EF0040F0CBFEFF3C9
:100340000880EFF309807146244A10472DE9F041F7
:1003500082B004460D46084B5F6BD3F838809E6A26
:10036000064800F051FA009543463A463146204689
:1003700000F064FA00BEFEE700ED00E0741700082C
:100380001EF0040F0CBFEFF30880EFF309807146F5
:10039000134A10472DE9F04182B004460D46084B40
:1003A0005F6BD3F838809E6A064800F02DFA0095FE
:1003B00043463A463146204600F040FA00BEFEE78A
:1003C00000ED00E08017000800BEFEE700BEFEE77B
:1003D00000BEFEE770470000D70200084D0300088A
:0803E0009503000800BEFEE7D2
:1003E8006419000800000020780000206419000843
:1003F80000000010000000107800002040020020DB
:080408000000001000000010CC
:1004100010B504460E4B18784FF47A73B3FBF0F323
:100420000C4A1068B0FBF3F000F09AF868B90F2C92
:1004300001D901200AE0002221464FF0FF3000F0F0
:1004400049F8054B1C60002000E0012010BD00BFF2
:10045000040000200C0000200800002008B5074A16
:10046000136843F010031360032000F015F80F2009
:10047000FFF7CEFF00F0D2FB002008BD00200240B5
:10048000034A1168034B1B780B441360704700BF8D
:100490007C0000200400002010B50446C31E042B7D
:1004A0000FD80A4AD36823F4E0631B041B0C240210
:1004B00004F4E064234343F0BF6343F40033D360A8
:1004C00010BDAC21024800F025FBEAE700ED00E09A
:1004D0001016000870B505460C4616460F2A25D89A
:1004E0000F2C28D81B4BDB68C3F30223C3F1070191
:1004F000042928BF04211A1D062A21D9033B4FF0E5
:10050000FF3202FA01F124EA01049C4002FA03F3EB
:1005100026EA03063443002D14DB2401E4B205F17E
:10052000604505F5614585F8004370BDC4210A4862
:1005300000F0F0FAD4E7C521074800F0EBFAD1E764
:100540000023DCE705F00F052401E4B2034B5C5502
:10055000EBE700BF00ED00E01016000814ED00E02E
:100560000138B0F1807F0BD24FF0E0235861054A8B
:10057000F02182F823100020986107221A61704749
:100580000120704700ED00E010B50446042800D0BB
:1005900040B9042C0CD04FF0E022136923F004037F
:1005A000136110BD40F2D111054800F0B3FAF0E735
:1005B0004FF0E022136943F004031361F1E700BF39
:1005C00010160008014B1868704700BF0C0000208F
:1005D00008B503460C4A12685AB10B4A1068033337
:1005E00023F003030344094A934206D8064A1360E2
:1005F00008BD054A06491160EFE700F021FB0C2316
:1006000003604FF0FF30F3E780000020009C0020E3
:100610004002002000B530B9044D18242046294678
:10062000ABBE0446FEE7024DF7E700BF260002001E
:10063000230002002DE9F04184B0234F01970326E7
:10064000039600230293012401AD20462946ABBE48
:1006500080461E4BC3F80080019703960423029343
:1006600020462946ABBE8046194BC3F8008001974F
:1006700003960823029320462946ABBE0446154B39
:100680001C60B4F1FF3F01D000230AE0104B1A6850
:10069000104B1A60F8E7104A4FF0FF3142F8331060
:1006A0000133132BF7DD0C4B084A12681A60002245
:1006B0005A60074909689960DA6006490968196152
:1006C0005A6104B0BDE8F08144160008040100201E
:1006D00008010020000100200C0100202DE9F0435A
:1006E00083B0814688462A4B00934F2301931527F8
:1006F0006C4638462146ABBE0746AFBB244B0022B2
:1007000083F84F20009A3E463C463D4607E00132C2
:100710001E46204B43F8252001350124013292F971
:100720000030FBB164B91C4959560029F6DB092B8E
:10073000F4D0082D16DC222BE9D0272BE9D1E6E7EF
:1007400036B19E42EAD1002313703E463C46E5E7AF
:1007500011495956002901DB092BDFD10023137001
:100760003446DBE73DB900E00025094B00221A7052
:10077000084A13600135074B002243F82520C9F8C9
:100780000050C8F80030FFF755FF03B0BDE8F08314
:1007900084000020D4000020CE1700082DE9F0438B
:1007A00085B004460F4643563BBB042528462146E8
:1007B000ABBE0446384605B0BDE8F08314F901CB62
:1007C00003F110026A4402F810CC0133AB42F5D3B6
:1007D00010336B44002203F8102C4FF00408E94654
:1007E00040464946ABBE8046761B002EE2D03546D9
:1007F000102E28BF10250023E8E70E46F5E708B5C0
:10080000FFF7CCFF08BD00000FB400B583B004AB08
:1008100053F8042B01938021074800F0F3FA0028D5
:1008200004DC03B05DF804EB04B0704701460248F5
:10083000FFF7E5FFF5E700BFAC010020F8B504467F
:100840000D4617461E462748FFF7DEFF216826485B
:10085000FFF7DAFF61682548FFF7D6FFA168244853
:10086000FFF7D2FFE1682348FFF7CEFF2169224856
:10087000FFF7CAFF61692148FFF7C6FFA169204859
:10088000FFF7C2FFE1691F48FFF7BEFF1E48FFF7F1
:10089000BBFF29461D48FFF7B7FF1D4CE16A1D4805
:1008A000FFF7B2FF216B1C48FFF7AEFFE16B1B485F
:1008B000FFF7AAFF15F0800F0AD115F4004F0CD1F5
:1008C0001748FFF7A1FF06991648FFF79DFFF8BDEF
:1008D00039461548FFF798FFEFE731461348FFF711
:1008E00093FFEDE748160008581600086816000840
:1008F000781600088816000898160008A816000840
:10090000B8160008C8160008D8160008E416000833
:1009100000ED00E0F41600080417000814170008A2
:10092000441700084C170008241700083417000863
:1009300038B583691B888B4201D0002038BD04463E
:1009400003684568013B302B69D8DFE803F0462196
:100950001C1C5E30332D191968191919191936190B
:10096000246819276839686868686868686868680A
:1009700068686868686868686868686868191900FD
:100980004FF0FF330360A3690233A3610120D5E771
:1009900000230360F7E700230360F4E700232B60E4
:1009A0006B60AB60EB60EEE700230360EBE7AB68E6
:1009B0000360E8E700230360E5E700230360E2E764
:1009C000BFF34F8F1749CA6802F4E062164B134316
:1009D000CB60BFF34F8F00BFFDE71449286800F0DC
:1009E000DBF940B96B6813B901232360CBE7042B13
:1009F00005D0082B06D04FF0FF332360C3E7022356
:100A00002360C0E703232360BDE72B68023B012B73
:100A100002D9AB680360B6E700230360B3E70020A8
:100A20008CE700BF00ED00E00400FA054416000862
:100A300008B500F009F8024A024B9A6008BD00BFF1
:100A40000000000800ED00E0024B4FF000629A60E9
:100A5000704700BF00ED00E01D4B5B6803F00C0326
:100A6000042B14D0082B16D01BB11A4B1A4A1A604B
:100A700002E0184B184A1A60154B5B68C3F3031366
:100A8000164AD15C134A1368CB4013607047114B70
:100A9000114A1A60F0E70E4A53685268C3F3834361
:100AA000023312F4803F05D10D4A02FB03F3094AD9
:100AB0001360E1E7064AD26A02F00F02511C064AAF
:100AC000B2FBF1F202FB03F3024A1360D4E700BF6A
:100AD000001002400C00002000127A00901700085D
:100AE00000093D0008B5FFF76DFD054BA3FB003085
:100AF0008009FFF735FD0420FFF746FD08BD00BF64
:100B0000D34D621008B5FFF7A9FCFFF7EBFFFFF725
:100B1000A3FF08BD08B50A4601460248FFF774FE68
:100B2000FEE700BFA01700083A4A536943F40013D8
:100B30005361394B1A6842F480521A601A6842F4C1
:100B400080421A601A6842F480321A601A6842F4CD
:100B500080221A601A6842F480621A60DA6842F4ED
:100B60000062DA6050E0013342F20F729342FADD24
:100B7000294B4FF480029A61002300E0013342F2D6
:100B80000F729342FADD244B80229A61002300E029
:100B9000013342F20F729342FADD1F4B4FF4000211
:100BA0009A61002300E0013342F20F729342FADDB2
:100BB000194B4FF480729A61002300E0013342F236
:100BC0000F729342FADD144B4FF080729A6100234A
:100BD00000E0013342F20F729342FADD0E4B4FF404
:100BE00000729A61002300E0013342F20F729342D7
:100BF000FADD094B4FF000729A61002300E00133E7
:100C000042F20F729342FADD034B40229A610023B5
:100C1000AAE700BF0010024000080048704700002B
:100C2000034B1B681BB1024A1368013B13607047FA
:100C30002C02002008B5FFF723FCFFF7F1FF08BDE9
:100C4000014B1868704700BF1000002070477047C4
:100C500070B50E4E0C463168054611B900F08CF89F
:100C600030602146284600F087F8431C0AD0C41C97
:100C700024F00304A04207D0211A284600F07CF893
:100C8000013001D14FF0FF34204670BD3802002002
:100C90002DE9F041CD1C25F0030508350C2D38BF9A
:100CA0000C25002D074601DBA94205D90C233B602A
:100CB00000263046BDE8F0812E4E00F0B1F83368D2
:100CC0001C4634BB29463846FFF7C2FF431C044686
:100CD0004DD134682646002E40D12368314638462F
:100CE00004EB030800F048F880453AD12168033549
:100CF0006D1A25F0030508350C2D38BF0C25294643
:100D00003846FFF7A5FF01302BD023682B44236022
:100D10000EE02268521B1ED40B2A16D96119A34279
:100D2000256018BF5960636808BF316062514B602D
:100D3000384604F10B0600F079F826F00706231D6B
:100D4000F21AB6D09B1BA350B3E76268A3420CBF54
:100D500032605A60ECE723466468B2E7344676684E
:100D6000B9E70C233B60384600F060F8A1E7256046
:100D7000DEE700BF3402002038B5064D00230446EC
:100D800008462B60FFF724FC431C02D12B6803B1FB
:100D9000236038BDFC00002010F8012B11F8013B46
:100DA000012A28BF9A42F7D0D01A704730B51446AE
:100DB000002C9BB005461A4605DA8B2303604FF0E2
:100DC000FF301BB030BD4FF40273ADF80C3014BFD0
:100DD00004F1FF332346029305934FF6FF7300910E
:100DE0000491ADF80E3069461E9B00F0CBF8431C11
:100DF000BCBF8B232B60002CE3D0009B00221A7019
:100E0000DFE7000007B5009313460A460146034892
:100E10000068FFF7CBFF03B05DF804FB1000002073
:100E20000148FFF713BF00BF300200200148FFF761
:100E30000EBF00BF3002002038B50546002941D062
:100E400051F8043C0C1F002BB8BFE418FFF7E8FF73
:100E50001D4A136833B9636014602846BDE8384002
:100E6000FFF7E4BFA34208D9206821188B4201BFD5
:100E700019685B6809182160EDE71A465B680BB1D9
:100E8000A342FAD911685018A0420BD1206801443E
:100E9000501883421160E0D118685B6853600144C8
:100EA0001160DAE702D90C232B60D6E720682118FD
:100EB0008B4204BF19685B68636004BF0918216036
:100EC0005460CAE738BD00BF340200202DE9F04766
:100ED0008E689E4282460C4690461F4638D88A89C4
:100EE00012F4906F32D025680969A5EB0109656994
:100EF00005EB450505EBD57501334B446D109D425F
:100F000038BF1D46530531D52946FFF7C1FE0646B9
:100F100050B90C23CAF80030A38943F04003A381E1
:100F20004FF0FF30BDE8F08721694A4600F010FB22
:100F3000A38923F4906343F08003A3812661656154
:100F40004E44A5EB09052660A5603E46BE4200D989
:100F50003E4620683246414600F008FBA3689B1BD2
:100F6000A3602368334423600020DBE72A4600F0B7
:100F700017FB06460028E1D121695046FFF75CFFC8
:100F8000C7E700002DE9F04F98468B891B069DB0FE
:100F900007460D4614460ED50B6963B94021FFF78D
:100FA00077FE2860286120B90C233B604FF0FF30AA
:100FB000D1E040236B610023099320238DF8293071
:100FC000CDF80C803023DFF8A8818DF82A304FF05F
:100FD000010923469A4613F8012B0AB1252AF9D1B3
:100FE000BAEB040B0BD05B46224629463846FFF786
:100FF0006DFF013000F0AA80099A5A4409929AF8CC
:101000000030002B00F0A28000234FF0FF32CDE92A
:1010100005230AF1010A049307938DF853301A93BC
:101020005446052214F8011B514800F041FA049A75
:10103000D8B9D00644BF20238DF85330110744BFE0
:101040002B238DF853309AF800302A2B15D0079AAD
:10105000544600204FF00A0C214611F8013B303B6A
:10106000092B4ED9B0B1079214E0A0EB080309FA9E
:1010700003F313430493A246D2E7039B191D1B6895
:101080000391002BBBBF5B4242F002020793079320
:10109000B8BF049223782E2B0CD163782A2B35D13C
:1010A000039B1A1D1B680392002BB8BF4FF0FF3340
:1010B00002340593DFF8BCA021780322504600F0EB
:1010C000F7F940B14023A0EB0A0003FA00F0049BBB
:1010D00003430134049314F8011B27488DF82810AA
:1010E000062200F0E5F9002838D0244B1BBB039BF7
:1010F000073323F0070308330393099B3344099311
:1011000067E70CFB02320C460120A5E700230134FF
:10111000059319464FF00A0C204610F8012B303A7F
:10112000092A03D9002BC5D00591C3E70CFB012187
:1011300004460123F0E703AB00932A46104B04A9B1
:101140003846AFF30080421C0646D6D1AB895B0619
:101150003FF52CAF09981DB0BDE8F08F03AB0093AD
:101160002A46074B04A9384600F07AF8EBE700BF9F
:1011700030190008361900083A190008000000006C
:10118000CD0E00082DE9F047164699468A680B698E
:10119000DDF820809342B8BF1346336091F84320B6
:1011A00007460C460AB1013333602368990642BFF3
:1011B000336802333360256815F0060506D104F163
:1011C000190AE36832689B1AAB4226DC94F8432084
:1011D000131E226818BF012392062BD404F1430288
:1011E00049463846C04701301ED02368E56832685A
:1011F00003F00603042B08BFAD1AA36822690CBFD5
:1012000025EAE57500259342C4BF9B1AED18002618
:101210001A34B5421AD1002008E00123524649464B
:101220003846C047013003D14FF0FF30BDE8F087AA
:101230000135C6E7E1185A1C302081F843002244EA
:1012400094F8451082F843100233C7E70123224681
:1012500049463846C0470130E6D00136D9E700009C
:101260002DE9FF470F7E0C9D782F914680460C4656
:101270009A4601F1430207D8622F0AD8002F00F0E6
:10128000D880582F00F0A38004F1420584F8427002
:101290003AE0A7F16303152BF6D801A151F823F02A
:1012A000F91200080D1300088912000889120008BD
:1012B00089120008891200080D130008891200081D
:1012C0008912000889120008891200081914000800
:1012D0003D130008FB13000889120008891200085A
:1012E0003B140008891200083D1300088912000809
:1012F00089120008031400082B681A1D1B682A6055
:1013000004F1420584F842300123A3E020682968F3
:10131000060601F104030AD50E682B60002E03DADD
:101320002D23764284F843305E480A2319E00E6884
:101330002B6010F0400F18BF36B2EFE72B68206823
:10134000191D2960010601D51E6802E04606FBD57D
:101350001E8854486F2F0CBF08230A23002184F8ED
:1013600043106568A560002DA2BF216821F004012B
:1013700021600EB9002D4DD01546B6FBF3F103FBED
:101380001167C75D05F8017D3746BB420E46F4D9AB
:10139000082B0BD12368DE0708D5236961689942C1
:1013A000DEBF302305F8013C05F1FF35521B2261F9
:1013B000CDF800A04B4603AA21464046FFF7E2FEC7
:1013C00001304CD14FF0FF3004B0BDE8F087354814
:1013D00081F845702968236851F8046B29601D065F
:1013E00014D5DF0744BF43F0200323601EB92368F0
:1013F00023F0200323601023B0E7236843F0200389
:1014000023607823284884F84530E3E7590648BF2D
:10141000B6B2E6E71546BBE72B6826686169181D7A
:10142000286035061B6801D5196002E07006FBD5FF
:101430001980002323611546BAE72B681A1D2A601C
:101440001D6862680021284600F032F808B1401B90
:10145000606063682361002384F84330A8E7236950
:101460002A4649464046D0470130ABD023689B0707
:1014700013D4E068039B9842B8BF1846A4E7012341
:10148000324649464046D04701309BD00135E3689B
:1014900003995B1AAB42F2DCEBE7002504F1190675
:1014A000F5E700BF411900085219000800000000CC
:1014B00001F0FF01102A2BDB10F0070F08D010F805
:1014C000013B013A8B422DD010F0070F42B3F6D109
:1014D000F0B441EA012141EA014122F007047FF022
:1014E00000070023F0E80256083C85EA010586EA79
:1014F000010685FA47F5A3FA87F586FA47F6A5FAB5
:1015000087F68EB9EED1F0BC01F0FF0102F00702C0
:1015100032B110F8013B013A83EA010313B1F8D16B
:101520000020704701387047002D06BF354603384C
:10153000073815F0010F07D1013015F4807F02BF85
:10154000013015F4C03F0130F0BC0138704700BFD6
:101550000A44914200F1FF3300D1704710B511F8F1
:10156000014B03F8014F9142F9D110BD884210B5EB
:1015700001EB020402D98442234607D8431EA1424C
:1015800008D011F8012B03F8012FF8E702440146B7
:101590008A4200D110BD13F8014D02F8014DF7E762
:1015A0002DE9F041804614460E4621B9BDE8F041D0
:1015B0001146FFF76DBB2AB9FFF73EFC25462846CA
:1015C000BDE8F08100F01BF88442074602D8B4EB76
:1015D000500F12D821464046FFF75AFB0546002817
:1015E000EDD0BC422246314628BF3A46FFF7B0FF55
:1015F00031464046FFF720FCE1E73546DFE751F88A
:10160000043C181F002BBCBF0B58C01870470000CB
:101610002E2E2F73797374656D2F7372632F73740D
:101620006D333266332D68616C2F73746D3332669F
:101630003378785F68616C5F636F727465782E636E
:10164000000000003A747400537461636B2066728A
:10165000616D653A0A000000205230203D202025AF
:101660003038580A00000000205231203D2020254B
:101670003038580A00000000205232203D2020253A
:101680003038580A00000000205233203D20202529
:101690003038580A0000000020523132203D202509
:1016A0003038580A00000000204C52203D202025F0
:1016B0003038580A00000000205043203D202025EB
:1016C0003038580A0000000020505352203D202599
:1016D0003038580A000000004653522F4641523A13
:1016E0000A0000002043465352203D202025303878
:1016F000580A00002048465352203D20202530380B
:10170000580A00002044465352203D2020253038FE
:10171000580A00002041465352203D2020253038F1
:10172000580A0000204D4D464152203D20253038BA
:10173000580A00002042464152203D2020253038E2
:10174000580A00004D6973630A000000204C522FB4
:101750004558435F52455455524E3D202530385828
:101760000A0000005B486172644661756C745D0A32
:10177000000000005B4275734661756C745D0A0081
:101780005B55736167654661756C745D0A000000A6
:101790000000000000000000010203040607080921
:1017A00057726F6E6720706172616D6574657273D8
:1017B0002076616C75653A2066696C65202573201A
:1017C0006F6E206C696E652025640D0A0000202074
:1017D00020202020202020282828282820202020E1
:1017E00020202020202020202020202020208810A1
:1017F0001010101010101010101010101010040401
:101800000404040404040404101010101010104107
:101810004141414141010101010101010101010178
:10182000010101010101010101101010101010420D
:101830004242424242020202020202020202020248
:101840000202020202020202021010101020000026
:101850000000000000000000000000000000000088
:101860000000000000000000000000000000000078
:101870000000000000000000000000000000000068
:101880000000000000000000000000000000000058
:101890000000000000000000000000000000000048
:1018A0000000000000000000000000000000000038
:1018B0000000000000000000000000000000000028
:1018C0000000000000000000000000000000000018
:1018D0000000000000000000000000000000000008
:1018E00000000000000000000000000000000000F8
:1018F00000000000000000000000000000000000E8
:1019000000000000000000000000000000000000D7
:1019100000000000000000000000000000000000C7
:1019200000000000000000000000000000000000B7
:10193000232D302B2000686C4C00656667454647B8
:10194000003031323334353637383941424344453B
:1019500046003031323334353637383961626364AA
:03196000656600B9
:101964007856341201FFFFFF1000000000127A00C5
:101974001400002000000000F018000810190008EE
:10198400D018000800000000000000000000000063
:101994000000000000000000000000000000000043
:1019A4000000000000000000000000000000000033
:1019B4000000000000000000000000000000000023
:1019C4000000000000000000000000000000000013
:0819D400000000003254769877
:040000050800018965
:00000001FF
